:020000041000EA
:10000000002008205D0100101301001015010010F0
:100010001101001011010010110100101101001058
:100020001101001011010010110100101701001042
:100030001101001011010010190100101B01001026
:100040001D0100101D0100101D0100101D010010F8
:100050001D0100101D0100101D0100101D010010E8
:100060001D0100101D0100101D0100101D010010D8
:100070001D0100101D0100101D0100101D010010C8
:100080001D0100101D0100101D0100101D010010B8
:100090001D0100101D0100101D0100101D010010A8
:1000A0001D0100101D0100101D0100101D01001098
:1000B0001D0100101D0100101D0100101D01001088
:1000C0001D0100101D0100101D0100101D01001078
:1000D0001D0100101D0100101D0100101D01001068
:1000E0001D0100101D0100101D0100101D01001058
:1000F0001D0100101D0100101D0100101D01001048
:100100001D0100101D0100101D0100101D01001037
:1001100000BE00BE00BE00BE00BE00BEEFF3058004
:10012000103800BEF2EB8871081F0010301F00105D
:10013000A801001090A31AE7D3DEFFFF42012110AF
:10014000FF0100009C1F0000793512AB4FF000004A
:100150002049086006C881F3088810474FF05040D6
:10016000006810B14FF00000F2E70FA40ECC002998
:1001700002D000F015F8F9E71749184A002000E00E
:1001800001C19142FCD1002080F30A8814498847BC
:10019000144988471449884700BEFDE701C901C2D8
:1001A0009A42FBD3704700BF301F0010100100209F
:1001B000B4020020D4200010000008200000082015
:1001C000D4200010001008200010082000000000BB
:1001D0007047000008ED00E0B4020020E0040020B9
:1001E000751500103D0200106D150010F8B500BF28
:1001F000064B0749C91A891048BF0131491003D07D
:10020000044B0BB101481847704700BFB4020020EF
:10021000B40200200000000008B5054B1BB10549E1
:100220000548AFF30080BDE80840FFF7E1BF00BF1D
:100230000000000098040020E41D00102DE9F041AA
:1002400084B001F08FFA3349334801F0C3FC032135
:10025000042000F063F80321052000F05FF800227D
:100260000121042000F078F800220121052000F08F
:1002700073F80F2000F084F80F234FF0010242ECD6
:10028000443000274FF4FE4402232021224803AAD1
:100290000097ADF80C404FF00A0801F0C1FC3D4654
:1002A00016E048F20A06022320211B4803AA009404
:1002B000ADF80C6001F0B4FC0135322D05D10F23EF
:1002C00087F0010747EC403000250A2000F084FD4C
:1002D000092601248DF80B600026234620210DF10C
:1002E0000B0200940C4801F09BFC234620210A4895
:1002F00003AA009601F09CFC9DF80C301C40D0D065
:100300000223202103AA00960348ADF80C8001F0D7
:1003100087FCD1E7A0860100A402002010B44FF4AE
:1003200080740C4B53F8202003EB8003C00082F054
:10033000400200F1804003F5805C02F0C00200F54D
:10034000203003F54053CCF8002041601C605DF87C
:10035000044B70470480034010B4084CC90041EAC4
:10036000820154F8202004EB8003514003F58053B0
:1003700001F00C015DF8044B1960704704800340E4
:1003800030B44FF0000343EC440043EC400005253B
:100390004FF480740B4BC20053F8201003EB800025
:1003A00081F0400102F1804303F5203301F0C002E7
:1003B00000F5805100F540500A605D60046030BC7B
:1003C000704700BF048003400FB400B583B0049CA5
:1003D000074801F00FFA3CB105A92046019101F050
:1003E000ABF8044801F006FA012001F0BDF800BFA7
:1003F000E41D0010F41D001070B58646EFF3108563
:1004000072B6124CD4E8CF6F0120002EFAD1C4E8A6
:10041000460F002EF6D1BFF35F8F4FF0010CC808D6
:1004200001F007030CFA03F31EF800C01CEA0306F0
:1004300008D14CEA030C0EF800C0C4E88F6F85F3B6
:10044000108870BD1046FFF7BFFF00BF43040020B7
:10045000044A1078431CDBB2182B28BF10231370FA
:10046000704700BF280200204FF0E022936843F05D
:1004700000539360704700BF0021044B03F120023A
:10048000C3E88F1F01339342FAD17047380400202C
:100490004FF0E0234FF08032C3F80024C3F8042467
:1004A000C3F80824C3F80C24C3F81024C3F8142498
:1004B000C3F81824C3F81C24C3F82024C3F8242448
:1004C000C3F82824C3F82C24C3F83024704700BF95
:1004D000012300F01F029340400941B1800000F168
:1004E000604000F56140C0F8803103607047024A07
:1004F000203042F82030704700E100E0F8B50D46AA
:10050000EFF3108772B6124ED6E8CF2F0123002AE0
:10051000FAD1C6E8423F002AF6D1BFF35F8F0D4BF8
:1005200000F110049B680C4A53F82430934203D026
:10053000994201D000F00CFF064B9B6843F8245011
:10054000BFF35F8F0023C6E88F3F87F31088F8BDA5
:100550004104002000ED00E01D0100102DE9F04FE6
:1005600083B0EFF3108A72B6714ED6E8CF2F012315
:10057000002AFAD1C6E8423F002AF6D1BFF35F8FC6
:100580006C4B00F110089B686B4A53F82850954259
:1005900045D08D420C4650D0684FEB1B2F2B3ED8D8
:1005A00001214FEA50194FEA890909F1604909F51B
:1005B000614900F01F0301FA03F0D9F80030C9F8CF
:1005C000800000EA030BBFF35F8FEFF30581C9B230
:1005D000002934D0884505D0CDE9001000F0B8FEE0
:1005E000DDE9001025F0010EDEF808C0644505D1F4
:1005F00089E0D3F808C0644531D09E469EF90620B4
:1006000002EB4203002A07EB8303F2DA644561D070
:10061000BBF1000F20D0C9F88001C9F80000454B9C
:100620009B6843F82850BFF35F8F0023C6E88F3FD5
:100630008AF3108803B0BDE8F08F1546EFE725F088
:10064000010EDEF808C06445D8D19EF90640734615
:10065000002C08DA154646E0C9F88000DFE793F978
:100660000640002C37DB04EB440C07EB8C0C9CF8A9
:100670000710DCF80820D9719A609CF90620610007
:10068000002A9A713DDBBCF804E05FEA4E5E05D5B6
:100690000EF5FF1E0EF5FF5E0EF11F0E6FF0070C3C
:1006A0000A194FEA6E5E920002EB4E0208323A449B
:1006B000ACEB030C6244C2F34A026FEAC2426FEA37
:1006C000D2429A801E4B21441A7807EB81011C709C
:1006D0008A719DE77346D9B9FF228EF806204BF642
:1006E0000152AEF80420164C4AF6AA2294F800C033
:1006F0001946C91B49414A43120D83F806C02270AE
:1007000086E7104ADDE79EF906407346002CAADA18
:100710000D4A0E4CD21A083AC2F30A316FEA01515F
:100720006FEA115144EA5202DA80998070E700BF03
:100730004104002000ED00E01D0100102C0200200B
:10074000DC04002001BDFFFF6602002000F8FFFF6F
:10075000F0B5EFF30585EDB2EFF3108C72B62649D4
:10076000D1E8CF2F0123002AFAD1C1E8423F002A65
:10077000F6D1BFF35F8F214E40F0010EB4684AF608
:10078000AA2354F825701E4A0446A41A6441634300
:100790001B0D77455BB21BD092F906409C421CD0E2
:1007A00092F912409C4223D092F91E409C4221D0E3
:1007B00092F92A409C4208BF03240FD0114A00241A
:1007C000157813708571C1E88F4F8CF31088F0BDD8
:1007D000B2680D4C42F82540F0E7002404EB4404D5
:1007E00002EB8402FF2494714BF601549480E5E7F8
:1007F0000124F3E70224F1E74104002000ED00E0CA
:100800002C020020DC0400201D010010014B0B44D1
:10081000036070473804002070B5104C104DAC4296
:100820000ED2FF26236863B1FFF712FE0146204671
:10083000FFF7ECFFA680BFF35F8F0834AC42F1D323
:1008400070BDFFF705FE01462046FFF7DFFF26716A
:10085000BFF35F8F0834AC42E4D370BDAC0200201C
:10086000B40200200D4B1A68EFF3108172B6D2E883
:10087000CFCF0120BCF1000FF9D1C2E84C0FBCF181
:10088000000FF4D1BFF35F8F00221B68C3E88F2FE6
:1008900081F3108840BF002000217047D004002061
:1008A0002DE9F04F2DED028B85B0EFF30583DBB220
:1008B000103B9A0818BF01224FF0010103F0030B0F
:1008C00018BFAF4DAF4B08BFAF4D0BEB820253F8D3
:1008D000226001FA0BF205F541539FEDA78B0192BF
:1008E0005A602FE0B3881C0440F19380B379002B49
:1008F00040F0DD80B6F90820002AC0F21E8173693D
:1009000002EB420203EBC203D3E90247B7F1FF3F18
:1009100008BFB4F1FF3F0ED005EB8B01AB6A0A694B
:10092000D21AE31A934205D301232A6A03FA0BF37E
:10093000134200D10C61284600F038FBA042B941B7
:10094000C0F2FB80B6F90830019A002B0093EA63ED
:10095000C8DBD6F8148003EB4309284608EBC90727
:10096000D7E9024A00F022FBA04271EB0A01B9DB91
:10097000BAF1000FC0F2C380D7E90431834A934231
:1009800000F0ED807A88B6F9080092B242EA0040A1
:10099000984702460B4652EA030100F0B080002B54
:1009A00080F2D180B4EB020E6AEB030A38F93930D9
:1009B000C7E902EA002B95DB716903EB430201EB07
:1009C000C202D2E90270BE457AEB000C4FEA430244
:1009D00088DBB4462CF8083F06E003EB430001EB4C
:1009E000C0005A00D0E90270BE451A447AEB0000FC
:1009F00001EBC20404DB31F93230A446002BECDAFF
:100A000028F83930009BACF80030B3881C043FF55F
:100A10006DAF3369EFF3108272B6D3E8CF0F0121C7
:100A20000028FAD1C3E8401F0028F6D1BFF35F8F3A
:100A30004FF6FF74B0880023316900B2B480C1E87A
:100A40008F3F82F310889842FFF650AF0746A946C1
:100A5000746906F1080807EB470E04EBCE03D3E9EF
:100A60000250B6F90830C446002B13DBB24600979B
:100A700004E034F936309446002B09DB03EB4306DF
:100A800004EBC602D2E90271BD4270EB0101F0DA5B
:100A90005646009FACF8007034F93E7024F83E30A2
:100AA000002FD8DAB3794D46002B3FF423AF002353
:100AB000B371B6F9083006F10808581C3DD01A4643
:100AC000776903E08046591C3FF416AF03EB4301FE
:100AD00007EBC100B0F802C01C461CF4004F9E4654
:100AE00037F93130EED0944280ED028B05D0A8F872
:100AF0000030328927F8312034817246E3E738F834
:100B0000393033813369EFF3108272B6D3E8CF0FF7
:100B100001210028FAD1C3E8401F0028F6D1BFF315
:100B20005F8F7388316928F83930009B7380002308
:100B3000C1E88F3F82F31088D4E640BF05B0BDEC1A
:100B4000028BBDE8F08F2846CDE9022300F02EFA93
:100B5000029A039B10EB020E43EB010A26E70846BC
:100B60000B69029198470028C9D00299D1E9002366
:100B700011E700BFAFF30080FFFFFFFFFFFFFFFFA4
:100B800000800B40B004002000000B40A1080010C2
:100B90002DE9F84F364C25692DB1BDE8F84F0A21F3
:100BA0003448FFF733BEDFF8E4800321404600F00D
:100BB000EBF90326C4F80C80FFF74AFC4FF0504CC9
:100BC0002D4B267003442361DCF800300F21637045
:100BD000636961801D834FF00405A3F878504FF0DE
:100BE0000505A3F890504FF00605A3F8A8504FF064
:100BF00007050E214FF6FF7208274FF00A0EA3F8E3
:100C0000C0504FF001094FF00C0C4FF0020B4FF0A9
:100C1000090A0D204FF00B05A3F868111749A280AF
:100C2000A3F808E1A160A3F848B0A3F8F0A0A3F8E6
:100C30002051A3F838C1A3F85001A3F83090A3F8CD
:100C40006060A3F8D8701A800D4B3046C8F8207049
:100C50000C49DC60FFF752FC49463046FFF738FC90
:100C6000094B0A211F640348BDE8F84FFFF7CEBDCA
:100C700074020020D004002038040020FFFF100080
:100C8000B0040020A108001000200B4000000B4021
:100C90000146F0B50069EFF3108772B6D0E8CF5F78
:100CA0000124002DFAD1C0E8454F002DF6D1BFF345
:100CB0005F8FB1F902E04C690EEB4E0CBEF1000FF4
:100CC0004FEACC05086904EBCC0C3CDB665B4E803C
:100CD0000026C0E88F6F87F31088BCF80200CCE9CB
:100CE00002230130C0F30E00012838BF0120059B0C
:100CF000ACF80200CCF81030069B40EA0E40CCF86D
:100D000014300B69EFF3108272B6D3E8CFCF01270E
:100D1000BCF1000FF9D1C3E84C7FBCF1000FF4D156
:100D2000BFF35F8F8B886353A1F804E00B69C3E8BE
:100D30008F6F82F310880122CB68097803F5015385
:100D40008A405A60F0BD0023C0E88F3F87F31088C7
:100D50004FF0FF30F0BD00BF03464089B0EB214F9C
:100D600037DD58690A1402EB420210B500EBC200ED
:100D70001C69EFF3108C72B6D4E8CFEF0122BEF1FC
:100D8000000FF9D1C4E84E2FBEF1000FF4D1BFF32C
:100D90005F8F428889B292B28A4207D000221B69D3
:100DA000C3E88F2F8CF31088002010BD42F400425E
:100DB00042800121002218699971C0E88F2F8CF3BD
:100DC00010881C78DA68084602F50153A140596082
:100DD00010BD0020704700BF2DE9F04182B00646EB
:100DE00000F0ECF84FF47A7304464FF0FF306FF0E8
:100DF0000042E6FB0341A04272EB01033ABF044606
:100E000015460D46A61F45F1FF37B44275EB0703A3
:100E10003CBF0026374600F0D1F8301A67EB0101DD
:100E2000012871F1000106DA2046294602B0BDE82A
:100E3000F04100F0FBB800F0C1F8864267EB010119
:100E400000290ADB0021174B3246009316483B4627
:100E50000191FFF71DFF0130E6D04FF0000C134A5F
:100E60001349536A9F4204D8906AB042DCD29F4231
:100E7000DAD10B68EFF3108072B6D3E8CF8F5FF052
:100E8000010EB8F1000FF8D1C3E848EFB8F1000F38
:100E9000F3D1BFF35F8F0B68C3E88FCF80F3108867
:100EA00020BFDEE7650800107402002000000B4040
:100EB000D00400202DE9F04306460D4683B0EFF341
:100EC0000584E4B23CB12D4B5A6AAA421CD20020E0
:100ED00003B0BDE8F0832A4FD7F80C9097F8008054
:100EE000484600F063F808F1040859F828301B1A46
:100EF000301A65EB0101984271F1000110DB20BF4F
:100F00001E4B5A6AAA42E2D314BF012400249B6AF2
:100F1000B34234BF204644F0010003B0BDE8F08383
:100F200000F04CF8864265EB0101002914DB154BFB
:100F30003846CDE9003432462B46FFF7A9FE011EA4
:100F40000ADD0E4B5A6AAA4216D39B6AB34211D3EA
:100F50000B48FFF701FFB6E7084B5C6AAC42B6D31B
:100F6000641B18BF01249B6AB34234BF204644F07F
:100F70000100ADE7AA42EBD120BFE9E700000B403A
:100F8000740200206508001010B4054B054C064A99
:100F9000A04214BF1846581C5DF8044BFFF72CBA4A
:100FA0006004002000800B40F81D00100346416AD9
:100FB0000A46986A596A8A42FAD17047034B596ABD
:100FC0000A46986A596A9142FAD1704700000B406C
:100FD00030B4154A536A9C46946A536A6345FAD101
:100FE000021959414FF0000528BF01250E4B5B6ADD
:100FF000B5B15A1C08BF1A4608D04FF0FF310A4657
:101000000948436A8B42FCD38B4207D1064902E070
:10101000486A984202D1886A9042F9D330BC70473E
:101020009942EDD8F0E700BF00000B40074A536A31
:101030009942FCD8994207D1044B02E05A6A914286
:1010400002D19A6A9042F9D8704700BF00000B4065
:10105000F8B5054606200E4600F0E4F8002842D018
:10106000354A3648954214BF4FF080624FF0006217
:10107000334B344902601A608C6832EA0404FBD1B5
:101080002D4B4FF48071EB1AB3FA83F32E4A5B09B0
:10109000062022F8131000F0C5F8C300B3FBF6F3E6
:1010A0000133DA0920D1402601216962AA622F6B3F
:1010B000FB0722D42B46002253F82C1F062003F5F1
:1010C000805422602F6300F0ADF840F2013103221A
:1010D0008000B0FBF6F0EB6A83F0700303F07E0350
:1010E00023602963AA64F8BD4FF6FE718A421BD9BA
:1010F00022464FF6FF71154ED7E740F2013205F553
:1011000040531A636B6AAC6A062004EB831400F048
:1011100089F80F4BA402A3FB0023DB0A0021B4FBD8
:10112000F3F0FFF755FFC5E7C3F34503114603EBA3
:1011300082161A46B9E700BF00800740002002402F
:101140000030024000000240D4040020C0FF3F00F5
:10115000757B2B8F00EB400C4FEA8C0C0CF1804C14
:101160000CF5803CF0B51646DCF80420051FB2F5FE
:10117000803F38BF4FF48032EDB238BFCCF8042046
:10118000012D2AD94FF40067254C0CF54052176009
:1011900054F82020B2B9DCF80020012D82EA461272
:1011A00002F0E0020CF5805632602AD94FF400615B
:1011B00044F820304FF480330CF500521160CCF825
:1011C0000430F0BD6769B7FBF2FE0EF1010E0EEBC5
:1011D0004E0EBEF1030EFCD2DDE70129D2D103246D
:1011E0000CF540521460DCF80820D207FBD5DCF87F
:1011F00000200B4C82EA461202F0E0020CF5805609
:1012000032600122DCF800504D4005F003053560E6
:1012100002FA01F1DCF808200A42FBD0C6E700BF61
:1012200064040020014B53F8200070476404002040
:1012300070B4039D04682D0345EA03451B4B002C45
:10124000B3FBF1F3B2FBF3F61FDB194A194B9042E3
:1012500014BF4FF480424FF40042174C1A6003F55C
:1012600080531A60A36832EA0303FBD1212200F500
:1012700040530433016086601A600268002AFCDA79
:101280000822C5601A6070BC7047036803F03F0312
:101290008B42DAD18368C3F30B03B342D5D1C36861
:1012A00003F4EE23AB42D0D1EDE700BF001BB70043
:1012B000008005400020024000000240012300EBB6
:1012C0004000800000F1804000F584104160036020
:1012D000704700BF0023DB8A002242E800F252027E
:1012E00001D4102118470421184700BF034AD2F83F
:1012F0002838002BFBD0BFF35F8F704700000E40F3
:101300000021044B044ABFF35F8F43F8041B934250
:10131000F9D170470C080E402C080E4010B44FF461
:101320008D704FF42A64064A064B07491460D0605A
:1013300019605368002BFCDA5DF8044B704700BF5E
:101340000080044000A0044000B0FA00704700BFD5
:1013500008B50148FFF738F81C1E001038B5054CD9
:10136000054DAC4204D254F8043B9847AC42FAD342
:1013700038BD00BFA01D0010E01D001010B40748CC
:10138000074C084B084A094904601A608B6832EA26
:101390000303FBD15DF8044B704700BF00200240FF
:1013A0007F3BEFEF00300240F6FFF3030000024006
:1013B000044BDB6CB3F5004F03D14FF48022024B9A
:1013C000DA64704700001150002011504FF0E02205
:1013D000044BD2F8881D0B43C2F8883D10EE300450
:1013E000704700BF030330006FF06041044B054AB3
:1013F00019609368DB4333F06043FAD1704700BF54
:10140000003002400000024010B545F25320FFF7C3
:1014100061FFBDE8104003460420184710B545F2AF
:101420005320FFF757FFBDE810400346012018473F
:10143000FFF722B810B5054B054C4FF488721846DB
:10144000A16800F0FDFBA06010BD00BF00000020FF
:1014500000ED00E0002370B52B4C82B0C4F884305E
:10146000FFF75CFF0122294BDA63636C012BFCD18F
:101470000321264A244B11639C6B012CFCD10226CC
:10148000052521460523224A22480096FFF7D0FE73
:1014900021462B46204A21480095FFF7C9FE00222D
:1014A000042031461E4BFFF755FE214628460022F8
:1014B0001C4BFFF74FFE0022082011461A4BFFF786
:1014C00049FE002209201146174BFFF743FE002278
:1014D00006201146134BFFF73DFE0022114B07205B
:1014E0001146FFF737FE0420FFF79CFE00240F4B48
:1014F000A3FB0035AD0CE0B229460134FFF7DEFE58
:10150000062CF8D102B070BD00000140003001404F
:10151000002F685900000540008C86470080054078
:10152000001BB70080D1F008006CDC0283DE1B4397
:1015300000B9704700F01CB910B5094B84B01C68A5
:101540004CB1034600914FF0FF3203A90548A04774
:10155000012004B010BD00F04DF9204604B010BDCC
:10156000940400203115001000BEFDE708B5FFF718
:10157000FBFF00BF38B5064C064DFFF7EFFEAC424F
:1015800004D254F8043B9847AC42FAD338BD00BFAC
:10159000E01D0010E41D00100368084611461847BE
:1015A0002DE9F0411546427D07468846002A46D07F
:1015B000002D1DDD0B780A2B23D0012D4FF0000CE0
:1015C00018D04646012416F8012F21460A2A04F1B4
:1015D000010422D0A542F6D165450BDC08EB0503DA
:1015E00013F8013CA3F10D03B3FA83F35B093B75D8
:1015F000BDE8F0813B68A5EB0C0108EB0C009847B7
:10160000ECE7037D002BD8D1036802210F489847EF
:10161000012DE3D04FF0010CD3E716F8013C0D2B60
:10162000D8D08C4508EB0C00A1EB0C0101DA3B682B
:101630009847022105483B689847A446CAE72946CF
:1016400040463B68BDE8F041184700BFE01E00106F
:101650002DE9F04782B00D4691461C460646FFF73D
:10166000ADFC4FF0FF3C6FF000472E4A821841F16D
:101670000003944577EB03013CBF62463B462A4892
:1016800000F08AFB6B1C804640D00CB3274F284BE0
:101690001C68B4B1B9F1000F1CD1DFF89C9001E0D7
:1016A000246974B12368002BFAD0D9F800300BB14B
:1016B0009C42F5D120462A463146B8472469002C81
:1016C000F0D1B8F1000F26D1284602B0BDE8F0876E
:1016D000184FDCE74FF00A0ADFF85C9002E024695B
:1016E000002CEED02368002BF9D0D9F800300BB1D4
:1016F000A342F4D12A4631462046B847012220466B
:101700000DF107018DF807A0B847E8E7304600F073
:101710000DFB0546B9E7044800F03AFB284602B045
:10172000BDE8F08740420F00AC020020A115001078
:101730008C0400209915001090040020084A1368BA
:1017400023B90AE003F110021B6933B18342F9D1D6
:1017500029B9186910601961704701B110607047AC
:101760008C04002008B500F033F9012008BD00BF4B
:10177000F0B583B006468DF80700FFF71FFC4FF069
:10178000FF356FF00044174A821841F1000395427B
:1017900074EB03013CBF23462A46134800F0FCFAD1
:1017A000124B07461C689CB1114D01E024697CB1C5
:1017B0002368002BFAD02B680BB19C42F6D120464F
:1017C00001220DF10701FFF7EBFE2469002CEFD198
:1017D00017B9304603B0F0BD034800F0D9FA3046DF
:1017E00003B0F0BD40420F00AC0200208C0400208A
:1017F0009004002038B5044600F098FA012305460D
:101800001A4620462946FFF723FF084B1C682CB1D7
:1018100063682BB198472469002CF9D1284638BD5C
:101820002469002CF4D1284638BD00BF8C04002068
:10183000B1F1000C1DDD0F4A0F4B126830B5D31A01
:10184000B3FA83F30D240D4D5B09411E35F913E006
:101850008C4411F8010F864506D093699B06FCD491
:1018600061451060F5D130BD93699D06FCD41460CC
:10187000F3E77047D804002000800740D40400201C
:10188000224BB1F1000C10B41C682EDD0346002081
:101890001F4A591E12689369DB0617D401309369F9
:1018A000DB06FCD41368844501F8013FF3D14CB149
:1018B00050211346916353F8342F02F0380203F598
:1018C00080531A6060465DF8044B70474CB150215C
:1018D0001346916353F8342F02F0380203F5805316
:1018E0001A6078B15DF8044B70475CB1084B502129
:1018F0001A681346916353F8342F02F0380203F547
:1019000080531A606FF00200DDE700BF580400202A
:10191000D8040020054B1B6833B10021044A054858
:101920001268006891631847704700BF5804002090
:10193000D80400205C040020024B1A6893691B073E
:10194000FCD47047D8040020F8B51C4F1C4D3A68F1
:101950001C4EAA4214BF212522250446D6F800C0F9
:1019600018B1BCF1000F10D0F8BDBCF1000FFBD0D6
:10197000014690632846FEF7ABFD28461249FEF764
:10198000EDFD124B34601C60F8BD0B460F4A0E494A
:10199000306028461360FEF7B1FD01212846FEF7AE
:1019A00097FD3A6850211346916353F8342F02F0A3
:1019B000380203F580531A60F8BD00BFD804002038
:1019C0000080074058040020151900105C04002016
:1019D00010B50E490E4C0F480F4A104B007821608D
:1019E0000020022112781B78FEF798FC02210120CA
:1019F000FEF794FC4FF4E1312068FFF729FBBDE8C6
:101A0000104001210648FFF799BE00BF00000740C3
:101A1000D80400202C1F0010281F0010241F0010C5
:101A20008C02002070B5002501260468002BE566B5
:101A30008446616028469DF810E0E66616DD5D1E6E
:101A4000616F1029FCD000B30021A84204BF8EF0C2
:101A5000010641EA462141F480712161D4F88010E9
:101A6000616B490605D54FF0FF30636D8CF804E0DB
:101A700070BDA16F0029F1D021690130834202F8C5
:101A8000011BF3D0DCF80040DAE79CF8041089026F
:101A9000DBE700BF2DE9F0410027012494460268EE
:101AA0000546D7665160D4661C1E38469DF81860FE
:101AB0001EDD297986F0010789027F0204F1FF3ECD
:101AC00070450CBFB8464FF000081CF8013B0B43B3
:101AD00043EA08031361536BD906FCD5D2F8801092
:101AE00049B970451CD0013084424FF00001E7D164
:101AF0002E71BDE8F0814FF00108536D536B9B05CB
:101B0000FCD5136EB8F1000FEDD069B1CB070BD443
:101B100011F0080F08BF4FF0FF302E71BDE8F081C3
:101B2000002EE0D1B046E9E74FF0FF30E0E700BF1C
:101B3000F8B5044605200F46FFF774FB00EB570C81
:101B4000BCFBF7FC204D0CEB4C02A5FB02651F49CA
:101B5000AE088F4200EB4003ACEB95052ED801F1A7
:101B6000D64101F5A10101F62C01A1FB03139B0D48
:101B7000013300214F2A98BF01222468B0FBFCF0FA
:101B8000E166216804F5805781F0040101F0060147
:101B9000396088BF0C49E56184BFA1FB021292093C
:101BA0002662C4F8A0202246012152F87C5F6B40D7
:101BB0009BB202F580521360E166F8BD0449A1FBB7
:101BC0000313DB0D0133D4E7CDCCCCCC3F420F0067
:101BD000893BE6550E4A30B4904214BF20221022B1
:101BE0000C4D0D4B0D4C2A601A60A36832EA0303BA
:101BF000FBD140F26515032402680371D3661560BA
:101C0000D3639363C2F8884030BCFFF791BF00BF35
:101C1000A4020020002002400030024000000240E8
:101C200010B49DF8044001945DF8044BFFF732BFF7
:101C300010B49DF8044001945DF8044BFFF7F2BE28
:101C4000844641EA000313F0030349D1403A23D309
:101C50000B6803604B6843608B688360CB68C3602C
:101C60000B6903614B6943618B698361CB69C36114
:101C70000B6A03624B6A43628B6A8362CB6AC362FC
:101C80000B6B03634B6B43638B6B8363CB6BC363E4
:101C900040304031403ADBD230320BD30B68036026
:101CA0004B6843608B688360CB68C3601030103131
:101CB000103AF3D20C3205D351F8043B40F8043B00
:101CC000043AF9D2043208D0D2071CBF11F8013B04
:101CD00000F8013B01D30B8803806046704700BFCA
:101CE000082A13D38B07B1D010F00303AED0C3F191
:101CF0000403D21ADB071CBF11F8013B00F8013BBB
:101D0000A4D331F8023B20F8023B9FE7043AD9D331
:101D1000013A11F8013B00F8013BF9D20B7803704E
:101D20004B7843708B7883706046704720F00301D6
:101D300010F00300C0F1000051F8043B00F1040C66
:101D40004FEACC0C6FF000021CBF22FA0CF21343D6
:101D50004FF0010C4CEA0C2C4CEA0C4CA3EB0C029F
:101D600022EA030212EACC1204BF51F8043B043009
:101D7000F4D0C2F1000102EA0102B2FA82F2C2F129
:101D80001F0200EBD2007047F8B500BF0000000052
:101D90005FF800F0E50100205FF800F07D01002011
:101DA000091400107D130010B11300105514001019
:101DB000E91300100113001031140010ED1200108F
:101DC0001908001035140010910B00104D1300106D
:101DD0001D140010CD1300106904001091040010B0
:041DE00019020010D4
:101DE4000A2A2A2A2050414E4943202A2A2A0A0034
:101DF4000A000000486172647761726520616C6159
:101E0400726D20256420616C726561647920636C55
:101E140061696D65640000004861726420617373D8
:101E24006572740052656C6561736500626F6F74EE
:101E3400325F77323571303830000000322E312E67
:101E4400310000007069636F325F770048573300D8
:101E54004A756E20313220323032360055415254A8
:101E640020737464696E0000554152542073746485
:101E74006F7574005541525420737464696E202F39
:101E8400207374646F75740006005250D3F0754269
:101E9400281E001006005250E182887F301E001078
:101EA40006005250ABB36053401E0010060052505F
:101EB400BBFF3CB6481E001006005250861C0302AD
:101EC400501E0010060052505422A29D541E0010B1
:101ED40005005250DE65F468E82000100D0A000089
:101EE4000600525053B4F4A1781E0010080052505A
:0C1EF40012000000080052509210000084
:081F000040FDFF7F010000001D
:101F08008C1E0010981E0010A41E0010B01E001099
:101F1800BC1E0010C81E0010D41E0010F81E0010B1
:081F2800F01E0010E41E001081
:101F30004FF050412DE9F0410027044616461D465A
:101F4000D1F8008008E0C1E88F7F8CF3108830461C
:101F5000294600F075F8E8B92168EFF3108C72B6E5
:101F6000D1E8CF2F0123002AFAD1C1E8423F002A4D
:101F7000F6D1BFF35F8F94F904302168002BE2DAC9
:101F8000002384F80480C1E88F3F8CF3108801207F
:101F9000BDE8F0810020BDE8F08100BF30B50468E5
:101FA000EFF3108C72B6D4E8CFEF0125BEF1000F2D
:101FB000F9D1C4E84E5FBEF1000FF4D1BFF35F8FDB
:101FC00090F904400568002C10DB0021C5E88F1F44
:101FD0008CF310884FF0504595F90050A54201D17F
:101FE000084630BDBDE83040FFF7A2BF4FF0504279
:101FF000126800230271C5E88F3F8CF3108801201E
:1020000030BD00BF0368EFF3108272B6D3E8CFCFC4
:102010000121BCF1000FF9D1C3E84C1FBCF1000F46
:10202000F4D1BFF35F8F4FF0FF0C0023016880F8FD
:1020300004C0C1E88F3F82F3108840BF704700BFE3
:102040005FF800F0B50E0010100000000000000066
:10205000000001000000000000000000000002007D
:10206000000000000000000000000300000000006D
:10207000000000000000FF000000000001B54868FB
:1020800001318E460047704609380149884701BD35
:1020900051070010000000000000000000000000D8
:1020A0000000000000000000B802002031180010FD
:1020B00039190010811800104919001000000000A3
:1020C00000010000000009400000000000000000C6
:0420D000000000000C
:1020D400D3DEFFFFFE010000FF01000064E0FFFF0C
:0420E400793512AB8D
:040000051000014D99
:00000001FF
